{
  "contractName": "Voting",
  "abi": [
    {
      "inputs": [
        {
          "internalType": "uint256[]",
          "name": "_ids_of_candidates",
          "type": "uint256[]"
        }
      ],
      "stateMutability": "nonpayable",
      "type": "constructor"
    },
    {
      "inputs": [],
      "name": "admin",
      "outputs": [
        {
          "internalType": "address",
          "name": "",
          "type": "address"
        }
      ],
      "stateMutability": "view",
      "type": "function",
      "constant": true
    },
    {
      "inputs": [
        {
          "internalType": "uint256",
          "name": "",
          "type": "uint256"
        }
      ],
      "name": "candidates",
      "outputs": [
        {
          "internalType": "uint256",
          "name": "candidate_id",
          "type": "uint256"
        },
        {
          "internalType": "uint256",
          "name": "no_of_votes",
          "type": "uint256"
        }
      ],
      "stateMutability": "view",
      "type": "function",
      "constant": true
    },
    {
      "inputs": [
        {
          "internalType": "address",
          "name": "",
          "type": "address"
        }
      ],
      "name": "voters",
      "outputs": [
        {
          "internalType": "bool",
          "name": "allowed",
          "type": "bool"
        },
        {
          "internalType": "uint8",
          "name": "weight",
          "type": "uint8"
        },
        {
          "internalType": "uint256",
          "name": "voteTo",
          "type": "uint256"
        }
      ],
      "stateMutability": "view",
      "type": "function",
      "constant": true
    },
    {
      "inputs": [],
      "name": "start_voting",
      "outputs": [],
      "stateMutability": "nonpayable",
      "type": "function"
    },
    {
      "inputs": [],
      "name": "end_voting",
      "outputs": [],
      "stateMutability": "nonpayable",
      "type": "function"
    },
    {
      "inputs": [
        {
          "internalType": "address",
          "name": "voter",
          "type": "address"
        }
      ],
      "name": "givevoteright",
      "outputs": [],
      "stateMutability": "nonpayable",
      "type": "function"
    },
    {
      "inputs": [
        {
          "internalType": "uint256",
          "name": "_id",
          "type": "uint256"
        }
      ],
      "name": "givevoteTo",
      "outputs": [],
      "stateMutability": "nonpayable",
      "type": "function"
    },
    {
      "inputs": [],
      "name": "declareResults",
      "outputs": [
        {
          "internalType": "uint256[]",
          "name": "",
          "type": "uint256[]"
        },
        {
          "internalType": "uint256[]",
          "name": "",
          "type": "uint256[]"
        }
      ],
      "stateMutability": "view",
      "type": "function",
      "constant": true
    }
  ],
  "bytecode": "0x60806040523480156200001157600080fd5b506040516200185f3803806200185f8339818101604052810190620000379190620002c1565b336000806101000a81548173ffffffffffffffffffffffffffffffffffffffff021916908373ffffffffffffffffffffffffffffffffffffffff16021790555060005b81518110156200015c576040518060400160405280838381518110620000c9577f4e487b7100000000000000000000000000000000000000000000000000000000600052603260045260246000fd5b6020026020010151815260200160008152506003600084848151811062000119577f4e487b7100000000000000000000000000000000000000000000000000000000600052603260045260246000fd5b602002602001015181526020019081526020016000206000820151816000015560208201518160010155905050808062000153906200039e565b9150506200007a565b5060008060146101000a81548160ff02191690831515021790555080600190805190602001906200018f92919062000197565b505062000475565b828054828255906000526020600020908101928215620001d6579160200282015b82811115620001d5578251825591602001919060010190620001b8565b5b509050620001e59190620001e9565b5090565b5b8082111562000204576000816000905550600101620001ea565b5090565b60006200021f62000219846200032f565b62000306565b905080838252602082019050828560208602820111156200023f57600080fd5b60005b85811015620002735781620002588882620002aa565b84526020840193506020830192505060018101905062000242565b5050509392505050565b600082601f8301126200028f57600080fd5b8151620002a184826020860162000208565b91505092915050565b600081519050620002bb816200045b565b92915050565b600060208284031215620002d457600080fd5b600082015167ffffffffffffffff811115620002ef57600080fd5b620002fd848285016200027d565b91505092915050565b60006200031262000325565b905062000320828262000368565b919050565b6000604051905090565b600067ffffffffffffffff8211156200034d576200034c6200041b565b5b602082029050602081019050919050565b6000819050919050565b62000373826200044a565b810181811067ffffffffffffffff821117156200039557620003946200041b565b5b80604052505050565b6000620003ab826200035e565b91507fffffffffffffffffffffffffffffffffffffffffffffffffffffffffffffffff821415620003e157620003e0620003ec565b5b600182019050919050565b7f4e487b7100000000000000000000000000000000000000000000000000000000600052601160045260246000fd5b7f4e487b7100000000000000000000000000000000000000000000000000000000600052604160045260246000fd5b6000601f19601f8301169050919050565b62000466816200035e565b81146200047257600080fd5b50565b6113da80620004856000396000f3fe608060405234801561001057600080fd5b50600436106100885760003560e01c8063a3ec138d1161005b578063a3ec138d14610103578063b24aa34e14610135578063ebb251451461013f578063f851a4401461015b57610088565b80630248a3411461008d5780633477ee2e146100ac57806343b976a8146100dd578063615a72cf146100f9575b600080fd5b610095610179565b6040516100a3929190610e98565b60405180910390f35b6100c660048036038101906100c19190610c35565b610432565b6040516100d4929190611046565b60405180910390f35b6100f760048036038101906100f29190610c35565b610456565b005b610101610706565b005b61011d60048036038101906101189190610c0c565b610806565b60405161012c93929190610ecf565b60405180910390f35b61013d61084a565b005b61015960048036038101906101549190610c0c565b61094b565b005b610163610bbe565b6040516101709190610e7d565b60405180910390f35b60608060001515600060149054906101000a900460ff161515146101d2576040517f08c379a00000000000000000000000000000000000000000000000000000000081526004016101c990611026565b60405180910390fd5b600060018054905067ffffffffffffffff811115610219577f4e487b7100000000000000000000000000000000000000000000000000000000600052604160045260246000fd5b6040519080825280602002602001820160405280156102475781602001602082028036833780820191505090505b509050600060018054905067ffffffffffffffff811115610291577f4e487b7100000000000000000000000000000000000000000000000000000000600052604160045260246000fd5b6040519080825280602002602001820160405280156102bf5781602001602082028036833780820191505090505b50905060005b600180549050811015610425576003600060018381548110610310577f4e487b7100000000000000000000000000000000000000000000000000000000600052603260045260246000fd5b9060005260206000200154815260200190815260200160002060000154838281518110610366577f4e487b7100000000000000000000000000000000000000000000000000000000600052603260045260246000fd5b60200260200101818152505060036000600183815481106103b0577f4e487b7100000000000000000000000000000000000000000000000000000000600052603260045260246000fd5b9060005260206000200154815260200190815260200160002060010154828281518110610406577f4e487b7100000000000000000000000000000000000000000000000000000000600052603260045260246000fd5b602002602001018181525050808061041d90611164565b9150506102c5565b5081819350935050509091565b60036020528060005260406000206000915090508060000154908060010154905082565b60011515600060149054906101000a900460ff161515146104ac576040517f08c379a00000000000000000000000000000000000000000000000000000000081526004016104a390610fe6565b60405180910390fd5b600260003373ffffffffffffffffffffffffffffffffffffffff1673ffffffffffffffffffffffffffffffffffffffff16815260200190815260200160002060000160009054906101000a900460ff1661053b576040517f08c379a000000000000000000000000000000000000000000000000000000000815260040161053290610f66565b60405180910390fd5b6001600260003373ffffffffffffffffffffffffffffffffffffffff1673ffffffffffffffffffffffffffffffffffffffff16815260200190815260200160002060000160019054906101000a900460ff1660ff16146105d0576040517f08c379a00000000000000000000000000000000000000000000000000000000081526004016105c790610fa6565b60405180910390fd5b80600360008381526020019081526020016000206000015414610628576040517f08c379a000000000000000000000000000000000000000000000000000000000815260040161061f90610f86565b60405180910390fd5b600260003373ffffffffffffffffffffffffffffffffffffffff1673ffffffffffffffffffffffffffffffffffffffff16815260200190815260200160002060000160019054906101000a900460ff1660ff166003600083815260200190815260200160002060010160008282546106a091906110b9565b925050819055506000600260003373ffffffffffffffffffffffffffffffffffffffff1673ffffffffffffffffffffffffffffffffffffffff16815260200190815260200160002060000160016101000a81548160ff021916908360ff16021790555050565b60008054906101000a900473ffffffffffffffffffffffffffffffffffffffff1673ffffffffffffffffffffffffffffffffffffffff163373ffffffffffffffffffffffffffffffffffffffff1614610794576040517f08c379a000000000000000000000000000000000000000000000000000000000815260040161078b90610f26565b60405180910390fd5b60011515600060149054906101000a900460ff161515146107ea576040517f08c379a00000000000000000000000000000000000000000000000000000000081526004016107e190610f46565b60405180910390fd5b60008060146101000a81548160ff021916908315150217905550565b60026020528060005260406000206000915090508060000160009054906101000a900460ff16908060000160019054906101000a900460ff16908060010154905083565b60008054906101000a900473ffffffffffffffffffffffffffffffffffffffff1673ffffffffffffffffffffffffffffffffffffffff163373ffffffffffffffffffffffffffffffffffffffff16146108d8576040517f08c379a00000000000000000000000000000000000000000000000000000000081526004016108cf90610f26565b60405180910390fd5b60001515600060149054906101000a900460ff1615151461092e576040517f08c379a000000000000000000000000000000000000000000000000000000000815260040161092590610fc6565b60405180910390fd5b6001600060146101000a81548160ff021916908315150217905550565b60008054906101000a900473ffffffffffffffffffffffffffffffffffffffff1673ffffffffffffffffffffffffffffffffffffffff163373ffffffffffffffffffffffffffffffffffffffff16146109d9576040517f08c379a00000000000000000000000000000000000000000000000000000000081526004016109d090610f26565b60405180910390fd5b60001515600260008373ffffffffffffffffffffffffffffffffffffffff1673ffffffffffffffffffffffffffffffffffffffff16815260200190815260200160002060000160009054906101000a900460ff16151514610a6f576040517f08c379a0000000000000000000000000000000000000000000000000000000008152600401610a6690611006565b60405180910390fd5b6000600260008373ffffffffffffffffffffffffffffffffffffffff1673ffffffffffffffffffffffffffffffffffffffff16815260200190815260200160002060000160019054906101000a900460ff1660ff1614610b04576040517f08c379a0000000000000000000000000000000000000000000000000000000008152600401610afb90610f06565b60405180910390fd5b6001600260008373ffffffffffffffffffffffffffffffffffffffff1673ffffffffffffffffffffffffffffffffffffffff16815260200190815260200160002060000160006101000a81548160ff0219169083151502179055506001600260008373ffffffffffffffffffffffffffffffffffffffff1673ffffffffffffffffffffffffffffffffffffffff16815260200190815260200160002060000160016101000a81548160ff021916908360ff16021790555050565b60008054906101000a900473ffffffffffffffffffffffffffffffffffffffff1681565b600081359050610bf181611376565b92915050565b600081359050610c068161138d565b92915050565b600060208284031215610c1e57600080fd5b6000610c2c84828501610be2565b91505092915050565b600060208284031215610c4757600080fd5b6000610c5584828501610bf7565b91505092915050565b6000610c6a8383610e50565b60208301905092915050565b610c7f8161110f565b82525050565b6000610c908261107f565b610c9a8185611097565b9350610ca58361106f565b8060005b83811015610cd6578151610cbd8882610c5e565b9750610cc88361108a565b925050600181019050610ca9565b5085935050505092915050565b610cec81611121565b82525050565b6000610cff600d836110a8565b9150610d0a826111dc565b602082019050919050565b6000610d22600b836110a8565b9150610d2d82611205565b602082019050919050565b6000610d456014836110a8565b9150610d508261122e565b602082019050919050565b6000610d686019836110a8565b9150610d7382611257565b602082019050919050565b6000610d8b6011836110a8565b9150610d9682611280565b602082019050919050565b6000610dae600d836110a8565b9150610db9826112a9565b602082019050919050565b6000610dd16016836110a8565b9150610ddc826112d2565b602082019050919050565b6000610df46013836110a8565b9150610dff826112fb565b602082019050919050565b6000610e17601a836110a8565b9150610e2282611324565b602082019050919050565b6000610e3a6014836110a8565b9150610e458261134d565b602082019050919050565b610e598161114d565b82525050565b610e688161114d565b82525050565b610e7781611157565b82525050565b6000602082019050610e926000830184610c76565b92915050565b60006040820190508181036000830152610eb28185610c85565b90508181036020830152610ec68184610c85565b90509392505050565b6000606082019050610ee46000830186610ce3565b610ef16020830185610e6e565b610efe6040830184610e5f565b949350505050565b60006020820190508181036000830152610f1f81610cf2565b9050919050565b60006020820190508181036000830152610f3f81610d15565b9050919050565b60006020820190508181036000830152610f5f81610d38565b9050919050565b60006020820190508181036000830152610f7f81610d5b565b9050919050565b60006020820190508181036000830152610f9f81610d7e565b9050919050565b60006020820190508181036000830152610fbf81610da1565b9050919050565b60006020820190508181036000830152610fdf81610dc4565b9050919050565b60006020820190508181036000830152610fff81610de7565b9050919050565b6000602082019050818103600083015261101f81610e0a565b9050919050565b6000602082019050818103600083015261103f81610e2d565b9050919050565b600060408201905061105b6000830185610e5f565b6110686020830184610e5f565b9392505050565b6000819050602082019050919050565b600081519050919050565b6000602082019050919050565b600082825260208201905092915050565b600082825260208201905092915050565b60006110c48261114d565b91506110cf8361114d565b9250827fffffffffffffffffffffffffffffffffffffffffffffffffffffffffffffffff03821115611104576111036111ad565b5b828201905092915050565b600061111a8261112d565b9050919050565b60008115159050919050565b600073ffffffffffffffffffffffffffffffffffffffff82169050919050565b6000819050919050565b600060ff82169050919050565b600061116f8261114d565b91507fffffffffffffffffffffffffffffffffffffffffffffffffffffffffffffffff8214156111a2576111a16111ad565b5b600182019050919050565b7f4e487b7100000000000000000000000000000000000000000000000000000000600052601160045260246000fd5b7f416c726561647920566f74656400000000000000000000000000000000000000600082015250565b7f41646d696e73204f6e6c79000000000000000000000000000000000000000000600082015250565b7f566f74696e6720616c726561647920656e646564000000000000000000000000600082015250565b7f566f746572204e6f7420616c6c6f77656420746f20766f746500000000000000600082015250565b7f4e6f20737563682043616e646964617465000000000000000000000000000000600082015250565b7f416c726561647920766f74656400000000000000000000000000000000000000600082015250565b7f566f74696e6720616c7265616479207374617274656400000000000000000000600082015250565b7f566f74696e672079657420746f20626567696e00000000000000000000000000600082015250565b7f416c7265616479206861732072696768747320746f20766f7465000000000000600082015250565b7f566f74696e6720686173206e6f7420656e646564000000000000000000000000600082015250565b61137f8161110f565b811461138a57600080fd5b50565b6113968161114d565b81146113a157600080fd5b5056fea26469706673582212205489972e0ef6ff46a198924384d965de31a8b22e18c3dd22d86bedada3ac33c164736f6c63430008010033",
  "immutableReferences": {},
  "source": "// SPDX-License-Identifier: GPL-3.0\npragma solidity ^0.8.0 ;\n\ncontract Voting {\n    \n    address public admin ;\n    \n    bool voting_started ;\n    \n    uint[] ids_of_candidates ;\n    \n    struct Voter {\n        bool allowed ; // is he allowed to vote\n        uint8 weight ;\n        uint  voteTo ;\n    }\n    \n    struct Candidate {\n        uint candidate_id ;\n        uint no_of_votes ;\n    }\n    \n    modifier adminonly {\n      require(msg.sender == admin , \"Admins Only\");\n      _;\n   }\n    \n    modifier has_started {\n        require(voting_started == true , \"Voting yet to begin\") ;\n        _;\n    }\n    \n    mapping(address => Voter) public voters ;\n    \n    mapping(uint => Candidate) public candidates ;\n    \n    \n    \n    constructor(uint[] memory _ids_of_candidates)  {\n        admin = msg.sender ;  // setting the admin \n        \n        for(uint i =0 ; i<_ids_of_candidates.length ; i++)\n        {\n            candidates[_ids_of_candidates[i]] = \n                Candidate({\n                    candidate_id : _ids_of_candidates[i] ,\n                    no_of_votes : 0 \n                    }) ;\n                \n        }\n        \n        voting_started = false  ;\n        ids_of_candidates = _ids_of_candidates ;\n    }\n    \n    \n    function start_voting() public adminonly {\n        require(voting_started == false , \"Voting already started\") ;\n        voting_started = true ;\n    }\n    \n    function end_voting() public adminonly {\n        require(voting_started == true , \"Voting already ended\") ;\n        voting_started = false ;\n    }\n    \n    function givevoteright(address voter) public adminonly {\n        require(voters[voter].allowed == false, \"Already has rights to vote\") ;\n        require(voters[voter].weight ==0 , \"Already Voted\" ) ;\n        \n        voters[voter].allowed = true ;\n        voters[voter].weight = 1 ;\n    }\n    \n    function givevoteTo(uint  _id) public has_started {\n        require(voters[msg.sender].allowed , \"Voter Not allowed to vote\");\n        require(voters[msg.sender].weight == 1 , \"Already voted\") ;\n        require(candidates[_id].candidate_id == _id , \"No such Candidate\") ;\n        candidates[_id].no_of_votes += voters[msg.sender].weight ;\n        voters[msg.sender].weight = 0 ;\n        \n        // candidates[_id].no_of_votes ++ ;\n\n    }\n  \n    function declareResults() public view returns (uint[] memory , uint[] memory) {\n        require(voting_started == false , \"Voting has not ended\") ;\n        uint[]    memory _ids = new uint[](ids_of_candidates.length);\n        uint[]    memory _candidate_votes = new uint[](ids_of_candidates.length);\n        for(uint i=0 ; i < ids_of_candidates.length ;i++ )\n        {\n                _ids[i] =  candidates[ids_of_candidates[i]].candidate_id  ;\n                _candidate_votes[i] = candidates[ids_of_candidates[i]].no_of_votes  ;\n        }\n        \n        return(_ids , _candidate_votes) ;\n    }\n    \n    \n}\n\n",
  "sourcePath": "/mnt/e/projects/dapp_voting/contracts/hello.sol",
  "compiler": {
    "name": "solc",
    "version": "0.8.1+commit.df193b15.Emscripten.clang"
  },
  "schemaVersion": "3.3.4",
  "updatedAt": "2021-04-28T04:17:54.949Z",
  "networkType": "ethereum",
  "devdoc": {
    "kind": "dev",
    "methods": {},
    "version": 1
  },
  "userdoc": {
    "kind": "user",
    "methods": {},
    "version": 1
  }
}