{
  "contractName": "Voting",
  "abi": [
    {
      "inputs": [
        {
          "internalType": "uint256[]",
          "name": "_ids_of_candidates",
          "type": "uint256[]"
        }
      ],
      "stateMutability": "nonpayable",
      "type": "constructor"
    },
    {
      "inputs": [],
      "name": "admin",
      "outputs": [
        {
          "internalType": "address",
          "name": "",
          "type": "address"
        }
      ],
      "stateMutability": "view",
      "type": "function",
      "constant": true
    },
    {
      "inputs": [
        {
          "internalType": "uint256",
          "name": "",
          "type": "uint256"
        }
      ],
      "name": "candidates",
      "outputs": [
        {
          "internalType": "uint256",
          "name": "candidate_id",
          "type": "uint256"
        },
        {
          "internalType": "uint256",
          "name": "no_of_votes",
          "type": "uint256"
        }
      ],
      "stateMutability": "view",
      "type": "function",
      "constant": true
    },
    {
      "inputs": [
        {
          "internalType": "address",
          "name": "",
          "type": "address"
        }
      ],
      "name": "voters",
      "outputs": [
        {
          "internalType": "bool",
          "name": "allowed",
          "type": "bool"
        },
        {
          "internalType": "uint8",
          "name": "weight",
          "type": "uint8"
        },
        {
          "internalType": "uint256",
          "name": "voteTo",
          "type": "uint256"
        }
      ],
      "stateMutability": "view",
      "type": "function",
      "constant": true
    },
    {
      "inputs": [],
      "name": "start_voting",
      "outputs": [],
      "stateMutability": "nonpayable",
      "type": "function"
    },
    {
      "inputs": [],
      "name": "end_voting",
      "outputs": [],
      "stateMutability": "nonpayable",
      "type": "function"
    },
    {
      "inputs": [
        {
          "internalType": "address",
          "name": "voter",
          "type": "address"
        }
      ],
      "name": "givevoteright",
      "outputs": [],
      "stateMutability": "nonpayable",
      "type": "function"
    },
    {
      "inputs": [
        {
          "internalType": "uint256",
          "name": "_id",
          "type": "uint256"
        }
      ],
      "name": "givevoteTo",
      "outputs": [],
      "stateMutability": "nonpayable",
      "type": "function"
    },
    {
      "inputs": [],
      "name": "declareResults",
      "outputs": [
        {
          "internalType": "uint256[]",
          "name": "",
          "type": "uint256[]"
        },
        {
          "internalType": "uint256[]",
          "name": "",
          "type": "uint256[]"
        }
      ],
      "stateMutability": "view",
      "type": "function",
      "constant": true
    }
  ],
  "bytecode": "0x60806040523480156200001157600080fd5b506040516200149a3803806200149a8339818101604052810190620000379190620002c1565b336000806101000a81548173ffffffffffffffffffffffffffffffffffffffff021916908373ffffffffffffffffffffffffffffffffffffffff16021790555060005b81518110156200015c576040518060400160405280838381518110620000c9577f4e487b7100000000000000000000000000000000000000000000000000000000600052603260045260246000fd5b6020026020010151815260200160008152506003600084848151811062000119577f4e487b7100000000000000000000000000000000000000000000000000000000600052603260045260246000fd5b602002602001015181526020019081526020016000206000820151816000015560208201518160010155905050808062000153906200039e565b9150506200007a565b5060008060146101000a81548160ff02191690831515021790555080600190805190602001906200018f92919062000197565b505062000475565b828054828255906000526020600020908101928215620001d6579160200282015b82811115620001d5578251825591602001919060010190620001b8565b5b509050620001e59190620001e9565b5090565b5b8082111562000204576000816000905550600101620001ea565b5090565b60006200021f62000219846200032f565b62000306565b905080838252602082019050828560208602820111156200023f57600080fd5b60005b85811015620002735781620002588882620002aa565b84526020840193506020830192505060018101905062000242565b5050509392505050565b600082601f8301126200028f57600080fd5b8151620002a184826020860162000208565b91505092915050565b600081519050620002bb816200045b565b92915050565b600060208284031215620002d457600080fd5b600082015167ffffffffffffffff811115620002ef57600080fd5b620002fd848285016200027d565b91505092915050565b60006200031262000325565b905062000320828262000368565b919050565b6000604051905090565b600067ffffffffffffffff8211156200034d576200034c6200041b565b5b602082029050602081019050919050565b6000819050919050565b62000373826200044a565b810181811067ffffffffffffffff821117156200039557620003946200041b565b5b80604052505050565b6000620003ab826200035e565b91507fffffffffffffffffffffffffffffffffffffffffffffffffffffffffffffffff821415620003e157620003e0620003ec565b5b600182019050919050565b7f4e487b7100000000000000000000000000000000000000000000000000000000600052601160045260246000fd5b7f4e487b7100000000000000000000000000000000000000000000000000000000600052604160045260246000fd5b6000601f19601f8301169050919050565b62000466816200035e565b81146200047257600080fd5b50565b61101580620004856000396000f3fe608060405234801561001057600080fd5b50600436106100885760003560e01c8063a3ec138d1161005b578063a3ec138d14610103578063b24aa34e14610135578063ebb251451461013f578063f851a4401461015b57610088565b80630248a3411461008d5780633477ee2e146100ac57806343b976a8146100dd578063615a72cf146100f9575b600080fd5b610095610179565b6040516100a3929190610c04565b60405180910390f35b6100c660048036038101906100c19190610a0a565b610432565b6040516100d4929190610d52565b60405180910390f35b6100f760048036038101906100f29190610a0a565b610456565b005b6101016104db565b005b61011d600480360381019061011891906109e1565b6105db565b60405161012c93929190610c3b565b60405180910390f35b61013d61061f565b005b610159600480360381019061015491906109e1565b610720565b005b610163610993565b6040516101709190610be9565b60405180910390f35b60608060001515600060149054906101000a900460ff161515146101d2576040517f08c379a00000000000000000000000000000000000000000000000000000000081526004016101c990610d32565b60405180910390fd5b600060018054905067ffffffffffffffff811115610219577f4e487b7100000000000000000000000000000000000000000000000000000000600052604160045260246000fd5b6040519080825280602002602001820160405280156102475781602001602082028036833780820191505090505b509050600060018054905067ffffffffffffffff811115610291577f4e487b7100000000000000000000000000000000000000000000000000000000600052604160045260246000fd5b6040519080825280602002602001820160405280156102bf5781602001602082028036833780820191505090505b50905060005b600180549050811015610425576003600060018381548110610310577f4e487b7100000000000000000000000000000000000000000000000000000000600052603260045260246000fd5b9060005260206000200154815260200190815260200160002060000154838281518110610366577f4e487b7100000000000000000000000000000000000000000000000000000000600052603260045260246000fd5b60200260200101818152505060036000600183815481106103b0577f4e487b7100000000000000000000000000000000000000000000000000000000600052603260045260246000fd5b9060005260206000200154815260200190815260200160002060010154828281518110610406577f4e487b7100000000000000000000000000000000000000000000000000000000600052603260045260246000fd5b602002602001018181525050808061041d90610e1a565b9150506102c5565b5081819350935050509091565b60036020528060005260406000206000915090508060000154908060010154905082565b60011515600060149054906101000a900460ff161515146104ac576040517f08c379a00000000000000000000000000000000000000000000000000000000081526004016104a390610cf2565b60405180910390fd5b6003600082815260200190815260200160002060010160008154809291906104d390610e1a565b919050555050565b60008054906101000a900473ffffffffffffffffffffffffffffffffffffffff1673ffffffffffffffffffffffffffffffffffffffff163373ffffffffffffffffffffffffffffffffffffffff1614610569576040517f08c379a000000000000000000000000000000000000000000000000000000000815260040161056090610c92565b60405180910390fd5b60011515600060149054906101000a900460ff161515146105bf576040517f08c379a00000000000000000000000000000000000000000000000000000000081526004016105b690610cb2565b60405180910390fd5b60008060146101000a81548160ff021916908315150217905550565b60026020528060005260406000206000915090508060000160009054906101000a900460ff16908060000160019054906101000a900460ff16908060010154905083565b60008054906101000a900473ffffffffffffffffffffffffffffffffffffffff1673ffffffffffffffffffffffffffffffffffffffff163373ffffffffffffffffffffffffffffffffffffffff16146106ad576040517f08c379a00000000000000000000000000000000000000000000000000000000081526004016106a490610c92565b60405180910390fd5b60001515600060149054906101000a900460ff16151514610703576040517f08c379a00000000000000000000000000000000000000000000000000000000081526004016106fa90610cd2565b60405180910390fd5b6001600060146101000a81548160ff021916908315150217905550565b60008054906101000a900473ffffffffffffffffffffffffffffffffffffffff1673ffffffffffffffffffffffffffffffffffffffff163373ffffffffffffffffffffffffffffffffffffffff16146107ae576040517f08c379a00000000000000000000000000000000000000000000000000000000081526004016107a590610c92565b60405180910390fd5b60001515600260008373ffffffffffffffffffffffffffffffffffffffff1673ffffffffffffffffffffffffffffffffffffffff16815260200190815260200160002060000160009054906101000a900460ff16151514610844576040517f08c379a000000000000000000000000000000000000000000000000000000000815260040161083b90610d12565b60405180910390fd5b6000600260008373ffffffffffffffffffffffffffffffffffffffff1673ffffffffffffffffffffffffffffffffffffffff16815260200190815260200160002060000160019054906101000a900460ff1660ff16146108d9576040517f08c379a00000000000000000000000000000000000000000000000000000000081526004016108d090610c72565b60405180910390fd5b6001600260008373ffffffffffffffffffffffffffffffffffffffff1673ffffffffffffffffffffffffffffffffffffffff16815260200190815260200160002060000160006101000a81548160ff0219169083151502179055506001600260008373ffffffffffffffffffffffffffffffffffffffff1673ffffffffffffffffffffffffffffffffffffffff16815260200190815260200160002060000160016101000a81548160ff021916908360ff16021790555050565b60008054906101000a900473ffffffffffffffffffffffffffffffffffffffff1681565b6000813590506109c681610fb1565b92915050565b6000813590506109db81610fc8565b92915050565b6000602082840312156109f357600080fd5b6000610a01848285016109b7565b91505092915050565b600060208284031215610a1c57600080fd5b6000610a2a848285016109cc565b91505092915050565b6000610a3f8383610bbc565b60208301905092915050565b610a5481610dc5565b82525050565b6000610a6582610d8b565b610a6f8185610da3565b9350610a7a83610d7b565b8060005b83811015610aab578151610a928882610a33565b9750610a9d83610d96565b925050600181019050610a7e565b5085935050505092915050565b610ac181610dd7565b82525050565b6000610ad4600d83610db4565b9150610adf82610e92565b602082019050919050565b6000610af7600b83610db4565b9150610b0282610ebb565b602082019050919050565b6000610b1a601483610db4565b9150610b2582610ee4565b602082019050919050565b6000610b3d601683610db4565b9150610b4882610f0d565b602082019050919050565b6000610b60601383610db4565b9150610b6b82610f36565b602082019050919050565b6000610b83601a83610db4565b9150610b8e82610f5f565b602082019050919050565b6000610ba6601483610db4565b9150610bb182610f88565b602082019050919050565b610bc581610e03565b82525050565b610bd481610e03565b82525050565b610be381610e0d565b82525050565b6000602082019050610bfe6000830184610a4b565b92915050565b60006040820190508181036000830152610c1e8185610a5a565b90508181036020830152610c328184610a5a565b90509392505050565b6000606082019050610c506000830186610ab8565b610c5d6020830185610bda565b610c6a6040830184610bcb565b949350505050565b60006020820190508181036000830152610c8b81610ac7565b9050919050565b60006020820190508181036000830152610cab81610aea565b9050919050565b60006020820190508181036000830152610ccb81610b0d565b9050919050565b60006020820190508181036000830152610ceb81610b30565b9050919050565b60006020820190508181036000830152610d0b81610b53565b9050919050565b60006020820190508181036000830152610d2b81610b76565b9050919050565b60006020820190508181036000830152610d4b81610b99565b9050919050565b6000604082019050610d676000830185610bcb565b610d746020830184610bcb565b9392505050565b6000819050602082019050919050565b600081519050919050565b6000602082019050919050565b600082825260208201905092915050565b600082825260208201905092915050565b6000610dd082610de3565b9050919050565b60008115159050919050565b600073ffffffffffffffffffffffffffffffffffffffff82169050919050565b6000819050919050565b600060ff82169050919050565b6000610e2582610e03565b91507fffffffffffffffffffffffffffffffffffffffffffffffffffffffffffffffff821415610e5857610e57610e63565b5b600182019050919050565b7f4e487b7100000000000000000000000000000000000000000000000000000000600052601160045260246000fd5b7f416c726561647920566f74656400000000000000000000000000000000000000600082015250565b7f41646d696e73204f6e6c79000000000000000000000000000000000000000000600082015250565b7f566f74696e6720616c726561647920656e646564000000000000000000000000600082015250565b7f566f74696e6720616c7265616479207374617274656400000000000000000000600082015250565b7f566f74696e672079657420746f20626567696e00000000000000000000000000600082015250565b7f416c7265616479206861732072696768747320746f20766f7465000000000000600082015250565b7f566f74696e6720686173206e6f7420656e646564000000000000000000000000600082015250565b610fba81610dc5565b8114610fc557600080fd5b50565b610fd181610e03565b8114610fdc57600080fd5b5056fea2646970667358221220a99e517f69d926f5d9d23cae3aa729d25bdebeaf225bb1924e726f1f711900b064736f6c63430008010033",
  "immutableReferences": {},
  "source": "// SPDX-License-Identifier: GPL-3.0\npragma solidity ^0.8.0 ;\n\ncontract Voting {\n    \n    address public admin ;\n    \n    bool voting_started ;\n    \n    uint[] ids_of_candidates ;\n    \n    struct Voter {\n        bool allowed ; // is he allowed to vote\n        uint8 weight ;\n        uint  voteTo ;\n    }\n    \n    struct Candidate {\n        uint candidate_id ;\n        uint no_of_votes ;\n    }\n    \n    modifier adminonly {\n      require(msg.sender == admin , \"Admins Only\");\n      _;\n   }\n    \n    modifier has_started {\n        require(voting_started == true , \"Voting yet to begin\") ;\n        _;\n    }\n    \n    mapping(address => Voter) public voters ;\n    \n    mapping(uint => Candidate) public candidates ;\n    \n    \n    \n    constructor(uint[] memory _ids_of_candidates)  {\n        admin = msg.sender ;  // setting the admin \n        \n        for(uint i =0 ; i<_ids_of_candidates.length ; i++)\n        {\n            candidates[_ids_of_candidates[i]] = \n                Candidate({\n                    candidate_id : _ids_of_candidates[i] ,\n                    no_of_votes : 0 \n                    }) ;\n                \n        }\n        \n        voting_started = false  ;\n        ids_of_candidates = _ids_of_candidates ;\n    }\n    \n    \n    function start_voting() public adminonly {\n        require(voting_started == false , \"Voting already started\") ;\n        voting_started = true ;\n    }\n    \n    function end_voting() public adminonly {\n        require(voting_started == true , \"Voting already ended\") ;\n        voting_started = false ;\n    }\n    \n    function givevoteright(address voter) public adminonly {\n        require(voters[voter].allowed == false, \"Already has rights to vote\") ;\n        require(voters[voter].weight ==0 , \"Already Voted\" ) ;\n        \n        voters[voter].allowed = true ;\n        voters[voter].weight = 1 ;\n    }\n    \n    function givevoteTo(uint  _id) public has_started {\n        // require(voters[msg.sender].allowed , \"Voter Not allowed to vote\");\n        // require(voters[msg.sender].weight == 1 , \"Already voted\") ;\n        // require(candidates[_id].candidate_id == _id , \"No such Candidate\") ;\n        // candidates[_id].no_of_votes += voters[msg.sender].weight ;\n        // voters[msg.sender].weight = 0 ;\n        \n        candidates[_id].no_of_votes ++ ;\n\n    }\n  \n    function declareResults() public view returns (uint[] memory , uint[] memory) {\n        require(voting_started == false , \"Voting has not ended\") ;\n        uint[]    memory _ids = new uint[](ids_of_candidates.length);\n        uint[]    memory _candidate_votes = new uint[](ids_of_candidates.length);\n        for(uint i=0 ; i < ids_of_candidates.length ;i++ )\n        {\n                _ids[i] =  candidates[ids_of_candidates[i]].candidate_id  ;\n                _candidate_votes[i] = candidates[ids_of_candidates[i]].no_of_votes  ;\n        }\n        \n        return(_ids , _candidate_votes) ;\n    }\n    \n    \n}\n\n",
  "sourcePath": "/home/anil_21810948/dapp-voting/contracts/hello.sol",
  "compiler": {
    "name": "solc",
    "version": "0.8.1+commit.df193b15.Emscripten.clang"
  },
  "schemaVersion": "3.3.4",
  "updatedAt": "2021-04-12T10:44:08.748Z",
  "networkType": "ethereum",
  "devdoc": {
    "kind": "dev",
    "methods": {},
    "version": 1
  },
  "userdoc": {
    "kind": "user",
    "methods": {},
    "version": 1
  }
}